{
  "abi": [
    {
      "type": "function",
      "name": "balances",
      "inputs": [
        {
          "name": "",
          "type": "address",
          "internalType": "address"
        }
      ],
      "outputs": [
        {
          "name": "",
          "type": "uint256",
          "internalType": "uint256"
        }
      ],
      "stateMutability": "view"
    },
    {
      "type": "function",
      "name": "claimPayment",
      "inputs": [
        {
          "name": "requestId",
          "type": "uint256",
          "internalType": "uint256"
        }
      ],
      "outputs": [],
      "stateMutability": "nonpayable"
    },
    {
      "type": "function",
      "name": "constructMessageOf",
      "inputs": [
        {
          "name": "requestId",
          "type": "uint256",
          "internalType": "uint256"
        }
      ],
      "outputs": [
        {
          "name": "message",
          "type": "bytes32",
          "internalType": "bytes32"
        }
      ],
      "stateMutability": "view"
    },
    {
      "type": "function",
      "name": "getBalanceOf",
      "inputs": [
        {
          "name": "sender",
          "type": "address",
          "internalType": "address"
        }
      ],
      "outputs": [
        {
          "name": "",
          "type": "uint256",
          "internalType": "uint256"
        }
      ],
      "stateMutability": "view"
    },
    {
      "type": "function",
      "name": "getPaymentRequest",
      "inputs": [
        {
          "name": "requestId",
          "type": "uint256",
          "internalType": "uint256"
        }
      ],
      "outputs": [
        {
          "name": "statusCode",
          "type": "uint8",
          "internalType": "enum SendersTreasury.PayRequestCode"
        },
        {
          "name": "sender",
          "type": "address",
          "internalType": "address"
        },
        {
          "name": "receiver",
          "type": "address",
          "internalType": "address"
        },
        {
          "name": "amount",
          "type": "uint256",
          "internalType": "uint256"
        }
      ],
      "stateMutability": "view"
    },
    {
      "type": "function",
      "name": "getReceiverPaymentIdsOf",
      "inputs": [
        {
          "name": "receiver",
          "type": "address",
          "internalType": "address"
        }
      ],
      "outputs": [
        {
          "name": "",
          "type": "uint256[]",
          "internalType": "uint256[]"
        }
      ],
      "stateMutability": "view"
    },
    {
      "type": "function",
      "name": "getSenderPaymentIdsOf",
      "inputs": [
        {
          "name": "sender",
          "type": "address",
          "internalType": "address"
        }
      ],
      "outputs": [
        {
          "name": "",
          "type": "uint256[]",
          "internalType": "uint256[]"
        }
      ],
      "stateMutability": "view"
    },
    {
      "type": "function",
      "name": "requestPayId",
      "inputs": [],
      "outputs": [
        {
          "name": "",
          "type": "uint256",
          "internalType": "uint256"
        }
      ],
      "stateMutability": "view"
    },
    {
      "type": "function",
      "name": "requestPayment",
      "inputs": [
        {
          "name": "sender",
          "type": "address",
          "internalType": "address"
        },
        {
          "name": "amount",
          "type": "uint256",
          "internalType": "uint256"
        }
      ],
      "outputs": [],
      "stateMutability": "nonpayable"
    },
    {
      "type": "function",
      "name": "signPayReq",
      "inputs": [
        {
          "name": "requestId",
          "type": "uint256",
          "internalType": "uint256"
        },
        {
          "name": "signature",
          "type": "bytes",
          "internalType": "bytes"
        }
      ],
      "outputs": [],
      "stateMutability": "payable"
    },
    {
      "type": "function",
      "name": "verifySignature",
      "inputs": [
        {
          "name": "signature",
          "type": "bytes",
          "internalType": "bytes"
        },
        {
          "name": "requestId",
          "type": "uint256",
          "internalType": "uint256"
        },
        {
          "name": "callerSender",
          "type": "address",
          "internalType": "address"
        }
      ],
      "outputs": [
        {
          "name": "",
          "type": "bool",
          "internalType": "bool"
        }
      ],
      "stateMutability": "view"
    },
    {
      "type": "function",
      "name": "withdraw",
      "inputs": [
        {
          "name": "amount",
          "type": "uint256",
          "internalType": "uint256"
        }
      ],
      "outputs": [],
      "stateMutability": "nonpayable"
    },
    {
      "type": "event",
      "name": "PayRequestSigned",
      "inputs": [
        {
          "name": "sender",
          "type": "address",
          "indexed": true,
          "internalType": "address"
        },
        {
          "name": "requestPayId",
          "type": "uint256",
          "indexed": true,
          "internalType": "uint256"
        }
      ],
      "anonymous": false
    },
    {
      "type": "event",
      "name": "PaymentDone",
      "inputs": [
        {
          "name": "requestPayId",
          "type": "uint256",
          "indexed": true,
          "internalType": "uint256"
        },
        {
          "name": "sender",
          "type": "address",
          "indexed": true,
          "internalType": "address"
        },
        {
          "name": "receiver",
          "type": "address",
          "indexed": true,
          "internalType": "address"
        },
        {
          "name": "amount",
          "type": "uint256",
          "indexed": false,
          "internalType": "uint256"
        }
      ],
      "anonymous": false
    },
    {
      "type": "event",
      "name": "PaymentRequested",
      "inputs": [
        {
          "name": "receiver",
          "type": "address",
          "indexed": true,
          "internalType": "address"
        },
        {
          "name": "requestPayId",
          "type": "uint256",
          "indexed": true,
          "internalType": "uint256"
        },
        {
          "name": "sender",
          "type": "address",
          "indexed": true,
          "internalType": "address"
        },
        {
          "name": "amount",
          "type": "uint256",
          "indexed": false,
          "internalType": "uint256"
        }
      ],
      "anonymous": false
    },
    {
      "type": "error",
      "name": "CallerIsNotReceiver",
      "inputs": []
    },
    {
      "type": "error",
      "name": "CallerIsNotSender",
      "inputs": []
    },
    {
      "type": "error",
      "name": "InsufficientBalanceOf",
      "inputs": [
        {
          "name": "",
          "type": "address",
          "internalType": "address"
        }
      ]
    },
    {
      "type": "error",
      "name": "InvalidDepositAmount",
      "inputs": []
    },
    {
      "type": "error",
      "name": "InvalidRequestId",
      "inputs": [
        {
          "name": "",
          "type": "uint256",
          "internalType": "uint256"
        }
      ]
    },
    {
      "type": "error",
      "name": "InvalidSignature",
      "inputs": []
    },
    {
      "type": "error",
      "name": "ZeroAddress",
      "inputs": []
    },
    {
      "type": "error",
      "name": "ZeroAmount",
      "inputs": []
    }
  ],
  "bytecode": {
    "object": "0x6080604052600160025534801561001557600080fd5b50611227806100256000396000f3fe6080604052600436106100a75760003560e01c80639fdbed5c116100645780639fdbed5c146101a4578063b09fbe1a146101ba578063c2f0df64146101ea578063c4ca172c1461021a578063c63fdcc71461023a578063d20830761461025a57600080fd5b80630769ec46146100ac57806327e235e3146100c15780632e1a7d4d1461010157806377cb184b146101215780639b96eece1461014e5780639f0c592e14610184575b600080fd5b6100bf6100ba366004610e94565b61027a565b005b3480156100cd57600080fd5b506100ee6100dc366004610ef7565b60006020819052908152604090205481565b6040519081526020015b60405180910390f35b34801561010d57600080fd5b506100bf61011c366004610f19565b6103f0565b34801561012d57600080fd5b5061014161013c366004610ef7565b6104d8565b6040516100f89190610f32565b34801561015a57600080fd5b506100ee610169366004610ef7565b6001600160a01b031660009081526020819052604090205490565b34801561019057600080fd5b506100bf61019f366004610f76565b610544565b3480156101b057600080fd5b506100ee60025481565b3480156101c657600080fd5b506101da6101d5366004610f19565b610707565b6040516100f89493929190610fb6565b3480156101f657600080fd5b5061020a610205366004610ffb565b61083b565b60405190151581526020016100f8565b34801561022657600080fd5b506100ee610235366004610f19565b610870565b34801561024657600080fd5b506100bf610255366004610f19565b610a2c565b34801561026657600080fd5b50610141610275366004610ef7565b610cd8565b60008281526001602052604090208215806102ab57506001815460ff1660038111156102a8576102a8610fa0565b14155b156102d1576040516364b4f07960e11b8152600481018490526024015b60405180910390fd5b805461010090046001600160a01b0316331461030057604051637798220760e11b815260040160405180910390fd5b81511580610314575061031482843361083b565b1561033257604051638baa579f60e01b815260040160405180910390fd5b3360009081526020819052604090205460028201546103513483611068565b1015610372576040516303f74b1560e21b81523360048201526024016102c8565b3360009081526020819052604081208054349290610391908490611068565b90915550506000848152600160205260409020805460ff191660021781556003016103bc8482611105565b50604051849033907f3cbe390e6be8460da82fbf1001aab39207f3d6bbd88a9efb99f6bfcbbc540fae90600090a350505050565b3360009081526020819052604090205481811015610423576040516303f74b1560e21b81523360048201526024016102c8565b61042d82826111c5565b3360008181526020819052604080822093909355915184908381818185875af1925050503d806000811461047d576040519150601f19603f3d011682016040523d82523d6000602084013e610482565b606091505b50509050806104d35760405162461bcd60e51b815260206004820152601760248201527f4661696c656420746f207769746864726177205453534300000000000000000060448201526064016102c8565b505050565b6001600160a01b03811660009081526004602090815260409182902080548351818402810184019094528084526060939283018282801561053857602002820191906000526020600020905b815481526020019060010190808311610524575b50505050509050919050565b6001600160a01b03821661056b5760405163d92e233d60e01b815260040160405180910390fd5b8060000361058c57604051631f2a200560e01b815260040160405180910390fd5b6002546040805160a08101825260018082526001600160a01b0386166020808401919091523383850152606083018690528351808201855260008082526080850191909152858152908290529290922081518154929391929091839160ff1916908360038111156105ff576105ff610fa0565b021790555060208201518154610100600160a81b0319166101006001600160a01b039283160217825560408301516001830180546001600160a01b0319169190921617905560608201516002820155608082015160038201906106629082611105565b5050336000908152600360209081526040808320805460018181018355918552838520018690556001600160a01b03881684526004835290832080549182018155835290822001839055600280549092506106bc906111d8565b909155506040518281526001600160a01b03841690829033907fb6edfd3e1a01dc3ba1d70b628dd73a9b23154d7e0a4d1fe466e97c9764570cef9060200160405180910390a4505050565b600081815260016020526040808220815160a08101909252805483928392839283929190829060ff16600381111561074157610741610fa0565b600381111561075257610752610fa0565b815281546001600160a01b03610100909104811660208301526001830154166040820152600282015460608201526003820180546080909201916107959061107b565b80601f01602080910402602001604051908101604052809291908181526020018280546107c19061107b565b801561080e5780601f106107e35761010080835404028352916020019161080e565b820191906000526020600020905b8154815290600101906020018083116107f157829003601f168201915b505050919092525050815160208301516040840151606090940151919a9099509297509550909350505050565b60008061084784610870565b905060006108558287610d42565b6001600160a01b039081169085161415925050509392505050565b600081815260016020526040808220815160a08101909252805483929190829060ff1660038111156108a4576108a4610fa0565b60038111156108b5576108b5610fa0565b815281546001600160a01b03610100909104811660208301526001830154166040820152600282015460608201526003820180546080909201916108f89061107b565b80601f01602080910402602001604051908101604052809291908181526020018280546109249061107b565b80156109715780601f1061094657610100808354040283529160200191610971565b820191906000526020600020905b81548152906001019060200180831161095457829003601f168201915b5050509190925250505060208181015160408084015160609485015182516bffffffffffffffffffffffff1994871b85168187015291861b84166034830152604882015260688101979097523090931b1660888601528151808603607c018152609c860183528051908201207f194175746f2052657175657374205061796d656e74733a0a333200000000000060bc87015260d6808701919091528251808703909101815260f6909501909152835193019290922092915050565b6000818152600160205260409020811580610a5d57506002815460ff166003811115610a5a57610a5a610fa0565b14155b15610a7e576040516364b4f07960e11b8152600481018390526024016102c8565b805461010090046001600160a01b03166000818152602081905260409020546002830154909181831015610ad0576040516303f74b1560e21b81526001600160a01b03821660048201526024016102c8565b60018401546001600160a01b03163314610afd57604051631a1a8c6b60e31b815260040160405180910390fd5b610b94846003018054610b0f9061107b565b80601f0160208091040260200160405190810160405280929190818152602001828054610b3b9061107b565b8015610b885780601f10610b5d57610100808354040283529160200191610b88565b820191906000526020600020905b815481529060010190602001808311610b6b57829003601f168201915b5050505050868361083b565b15610bb257604051638baa579f60e01b815260040160405180910390fd5b835460ff19166003178455610bc782846111c5565b6001600160a01b038216600090815260208190526040808220929092559051339084908381818185875af1925050503d8060008114610c22576040519150601f19603f3d011682016040523d82523d6000602084013e610c27565b606091505b5050905080610c825760405162461bcd60e51b815260206004820152602160248201527f636c61696d5061796d656e743a204661696c656420746f2073656e64205453536044820152604360f81b60648201526084016102c8565b336001600160a01b0316826001600160a01b0316877fd5d2af3aef795f5af40adb72b39dd23ef18b5c5b0d08fde329ef213ab6e2c0df86604051610cc891815260200190565b60405180910390a4505050505050565b6001600160a01b03811660009081526003602090815260409182902080548351818402810184019094528084526060939283018282801561053857602002820191906000526020600020908154815260200190600101908083116105245750505050509050919050565b600080600080610d5185610dc2565b6040805160008152602081018083528b905260ff8516918101919091526060810183905260808101829052929550909350915060019060a0016020604051602081039080840390855afa158015610dac573d6000803e3d6000fd5b5050506020604051035193505050505b92915050565b60008060008351604114610dd557600080fd5b5050506020810151604082015160609092015160001a92909190565b634e487b7160e01b600052604160045260246000fd5b600082601f830112610e1857600080fd5b813567ffffffffffffffff80821115610e3357610e33610df1565b604051601f8301601f19908116603f01168101908282118183101715610e5b57610e5b610df1565b81604052838152866020858801011115610e7457600080fd5b836020870160208301376000602085830101528094505050505092915050565b60008060408385031215610ea757600080fd5b82359150602083013567ffffffffffffffff811115610ec557600080fd5b610ed185828601610e07565b9150509250929050565b80356001600160a01b0381168114610ef257600080fd5b919050565b600060208284031215610f0957600080fd5b610f1282610edb565b9392505050565b600060208284031215610f2b57600080fd5b5035919050565b6020808252825182820181905260009190848201906040850190845b81811015610f6a57835183529284019291840191600101610f4e565b50909695505050505050565b60008060408385031215610f8957600080fd5b610f9283610edb565b946020939093013593505050565b634e487b7160e01b600052602160045260246000fd5b6080810160048610610fd857634e487b7160e01b600052602160045260246000fd5b9481526001600160a01b0393841660208201529190921660408201526060015290565b60008060006060848603121561101057600080fd5b833567ffffffffffffffff81111561102757600080fd5b61103386828701610e07565b9350506020840135915061104960408501610edb565b90509250925092565b634e487b7160e01b600052601160045260246000fd5b80820180821115610dbc57610dbc611052565b600181811c9082168061108f57607f821691505b6020821081036110af57634e487b7160e01b600052602260045260246000fd5b50919050565b601f8211156104d3576000816000526020600020601f850160051c810160208610156110de5750805b601f850160051c820191505b818110156110fd578281556001016110ea565b505050505050565b815167ffffffffffffffff81111561111f5761111f610df1565b6111338161112d845461107b565b846110b5565b602080601f83116001811461116857600084156111505750858301515b600019600386901b1c1916600185901b1785556110fd565b600085815260208120601f198616915b8281101561119757888601518255948401946001909101908401611178565b50858210156111b55787850151600019600388901b60f8161c191681555b5050505050600190811b01905550565b81810381811115610dbc57610dbc611052565b6000600182016111ea576111ea611052565b506001019056fea2646970667358221220036f3afc015aa9241ff873fe7da4256d07cdb386a1b26d4986b776cba9fbd20064736f6c63430008170033",
    "linkReferences": {}
  },
  "methodIdentifiers": {
    "balances(address)": "27e235e3",
    "claimPayment(uint256)": "c63fdcc7",
    "constructMessageOf(uint256)": "c4ca172c",
    "getBalanceOf(address)": "9b96eece",
    "getPaymentRequest(uint256)": "b09fbe1a",
    "getReceiverPaymentIdsOf(address)": "d2083076",
    "getSenderPaymentIdsOf(address)": "77cb184b",
    "requestPayId()": "9fdbed5c",
    "requestPayment(address,uint256)": "9f0c592e",
    "signPayReq(uint256,bytes)": "0769ec46",
    "verifySignature(bytes,uint256,address)": "c2f0df64",
    "withdraw(uint256)": "2e1a7d4d"
  },
  "id": 17
}