{
  "abi": [
    {
      "type": "function",
      "name": "balances",
      "inputs": [
        {
          "name": "",
          "type": "address",
          "internalType": "address"
        }
      ],
      "outputs": [
        {
          "name": "",
          "type": "uint256",
          "internalType": "uint256"
        }
      ],
      "stateMutability": "view"
    },
    {
      "type": "function",
      "name": "claimPayment",
      "inputs": [
        {
          "name": "requestId",
          "type": "uint256",
          "internalType": "uint256"
        }
      ],
      "outputs": [],
      "stateMutability": "nonpayable"
    },
    {
      "type": "function",
      "name": "constructMessageOf",
      "inputs": [
        {
          "name": "requestId",
          "type": "uint256",
          "internalType": "uint256"
        }
      ],
      "outputs": [
        {
          "name": "message",
          "type": "bytes32",
          "internalType": "bytes32"
        }
      ],
      "stateMutability": "view"
    },
    {
      "type": "function",
      "name": "getBalanceOf",
      "inputs": [
        {
          "name": "sender",
          "type": "address",
          "internalType": "address"
        }
      ],
      "outputs": [
        {
          "name": "",
          "type": "uint256",
          "internalType": "uint256"
        }
      ],
      "stateMutability": "view"
    },
    {
      "type": "function",
      "name": "getPaymentRequest",
      "inputs": [
        {
          "name": "requestId",
          "type": "uint256",
          "internalType": "uint256"
        }
      ],
      "outputs": [
        {
          "name": "statusCode",
          "type": "uint8",
          "internalType": "enum SendersTreasury.PayRequestCode"
        },
        {
          "name": "sender",
          "type": "address",
          "internalType": "address"
        },
        {
          "name": "receiver",
          "type": "address",
          "internalType": "address"
        },
        {
          "name": "amount",
          "type": "uint256",
          "internalType": "uint256"
        }
      ],
      "stateMutability": "view"
    },
    {
      "type": "function",
      "name": "getRequestedPayIdsOf",
      "inputs": [
        {
          "name": "user",
          "type": "address",
          "internalType": "address"
        }
      ],
      "outputs": [
        {
          "name": "",
          "type": "uint256[]",
          "internalType": "uint256[]"
        }
      ],
      "stateMutability": "view"
    },
    {
      "type": "function",
      "name": "requestPayId",
      "inputs": [],
      "outputs": [
        {
          "name": "",
          "type": "uint256",
          "internalType": "uint256"
        }
      ],
      "stateMutability": "view"
    },
    {
      "type": "function",
      "name": "requestPayment",
      "inputs": [
        {
          "name": "sender",
          "type": "address",
          "internalType": "address"
        },
        {
          "name": "amount",
          "type": "uint256",
          "internalType": "uint256"
        }
      ],
      "outputs": [],
      "stateMutability": "nonpayable"
    },
    {
      "type": "function",
      "name": "signPayReq",
      "inputs": [
        {
          "name": "requestId",
          "type": "uint256",
          "internalType": "uint256"
        },
        {
          "name": "signature",
          "type": "bytes",
          "internalType": "bytes"
        }
      ],
      "outputs": [],
      "stateMutability": "payable"
    },
    {
      "type": "function",
      "name": "verifySignature",
      "inputs": [
        {
          "name": "signature",
          "type": "bytes",
          "internalType": "bytes"
        },
        {
          "name": "requestId",
          "type": "uint256",
          "internalType": "uint256"
        },
        {
          "name": "callerSender",
          "type": "address",
          "internalType": "address"
        }
      ],
      "outputs": [
        {
          "name": "",
          "type": "bool",
          "internalType": "bool"
        }
      ],
      "stateMutability": "view"
    },
    {
      "type": "function",
      "name": "withdraw",
      "inputs": [
        {
          "name": "amount",
          "type": "uint256",
          "internalType": "uint256"
        }
      ],
      "outputs": [],
      "stateMutability": "nonpayable"
    },
    {
      "type": "event",
      "name": "PayRequestSigned",
      "inputs": [
        {
          "name": "sender",
          "type": "address",
          "indexed": true,
          "internalType": "address"
        },
        {
          "name": "requestPayId",
          "type": "uint256",
          "indexed": true,
          "internalType": "uint256"
        }
      ],
      "anonymous": false
    },
    {
      "type": "event",
      "name": "PaymentDone",
      "inputs": [
        {
          "name": "requestPayId",
          "type": "uint256",
          "indexed": true,
          "internalType": "uint256"
        },
        {
          "name": "sender",
          "type": "address",
          "indexed": true,
          "internalType": "address"
        },
        {
          "name": "receiver",
          "type": "address",
          "indexed": true,
          "internalType": "address"
        },
        {
          "name": "amount",
          "type": "uint256",
          "indexed": false,
          "internalType": "uint256"
        }
      ],
      "anonymous": false
    },
    {
      "type": "event",
      "name": "PaymentRequested",
      "inputs": [
        {
          "name": "receiver",
          "type": "address",
          "indexed": true,
          "internalType": "address"
        },
        {
          "name": "requestPayId",
          "type": "uint256",
          "indexed": true,
          "internalType": "uint256"
        },
        {
          "name": "sender",
          "type": "address",
          "indexed": true,
          "internalType": "address"
        },
        {
          "name": "amount",
          "type": "uint256",
          "indexed": false,
          "internalType": "uint256"
        }
      ],
      "anonymous": false
    },
    {
      "type": "error",
      "name": "CallerIsNotReceiver",
      "inputs": []
    },
    {
      "type": "error",
      "name": "CallerIsNotSender",
      "inputs": []
    },
    {
      "type": "error",
      "name": "InsufficientBalanceOf",
      "inputs": [
        {
          "name": "",
          "type": "address",
          "internalType": "address"
        }
      ]
    },
    {
      "type": "error",
      "name": "InvalidDepositAmount",
      "inputs": []
    },
    {
      "type": "error",
      "name": "InvalidRequestId",
      "inputs": [
        {
          "name": "",
          "type": "uint256",
          "internalType": "uint256"
        }
      ]
    },
    {
      "type": "error",
      "name": "InvalidSignature",
      "inputs": []
    },
    {
      "type": "error",
      "name": "ZeroAddress",
      "inputs": []
    },
    {
      "type": "error",
      "name": "ZeroAmount",
      "inputs": []
    }
  ],
  "bytecode": {
    "object": "0x6080604052600160025534801561001557600080fd5b5061118e806100256000396000f3fe60806040526004361061009c5760003560e01c80639f0c592e116100645780639f0c592e146101795780639fdbed5c14610199578063b09fbe1a146101af578063c2f0df64146101df578063c4ca172c1461020f578063c63fdcc71461022f57600080fd5b80630769ec46146100a157806327e235e3146100b65780632d769a1e146100f65780632e1a7d4d146101235780639b96eece14610143575b600080fd5b6100b46100af366004610dfb565b61024f565b005b3480156100c257600080fd5b506100e36100d1366004610e5e565b60006020819052908152604090205481565b6040519081526020015b60405180910390f35b34801561010257600080fd5b50610116610111366004610e5e565b6103c5565b6040516100ed9190610e80565b34801561012f57600080fd5b506100b461013e366004610ec4565b610431565b34801561014f57600080fd5b506100e361015e366004610e5e565b6001600160a01b031660009081526020819052604090205490565b34801561018557600080fd5b506100b4610194366004610edd565b610519565b3480156101a557600080fd5b506100e360025481565b3480156101bb57600080fd5b506101cf6101ca366004610ec4565b6106d8565b6040516100ed9493929190610f1d565b3480156101eb57600080fd5b506101ff6101fa366004610f62565b61080c565b60405190151581526020016100ed565b34801561021b57600080fd5b506100e361022a366004610ec4565b610841565b34801561023b57600080fd5b506100b461024a366004610ec4565b6109fd565b600082815260016020526040902082158061028057506001815460ff16600381111561027d5761027d610f07565b14155b156102a6576040516364b4f07960e11b8152600481018490526024015b60405180910390fd5b805461010090046001600160a01b031633146102d557604051637798220760e11b815260040160405180910390fd5b815115806102e957506102e982843361080c565b1561030757604051638baa579f60e01b815260040160405180910390fd5b3360009081526020819052604090205460028201546103263483610fcf565b1015610347576040516303f74b1560e21b815233600482015260240161029d565b3360009081526020819052604081208054349290610366908490610fcf565b90915550506000848152600160205260409020805460ff19166002178155600301610391848261106c565b50604051849033907f3cbe390e6be8460da82fbf1001aab39207f3d6bbd88a9efb99f6bfcbbc540fae90600090a350505050565b6001600160a01b03811660009081526003602090815260409182902080548351818402810184019094528084526060939283018282801561042557602002820191906000526020600020905b815481526020019060010190808311610411575b50505050509050919050565b3360009081526020819052604090205481811015610464576040516303f74b1560e21b815233600482015260240161029d565b61046e828261112c565b3360008181526020819052604080822093909355915184908381818185875af1925050503d80600081146104be576040519150601f19603f3d011682016040523d82523d6000602084013e6104c3565b606091505b50509050806105145760405162461bcd60e51b815260206004820152601760248201527f4661696c656420746f2077697468647261772054535343000000000000000000604482015260640161029d565b505050565b6001600160a01b0382166105405760405163d92e233d60e01b815260040160405180910390fd5b8060000361056157604051631f2a200560e01b815260040160405180910390fd5b6002546040805160a08101825260018082526001600160a01b0386166020808401919091523383850152606083018690528351808201855260008082526080850191909152858152908290529290922081518154929391929091839160ff1916908360038111156105d4576105d4610f07565b021790555060208201518154610100600160a81b0319166101006001600160a01b039283160217825560408301516001830180546001600160a01b031916919092161790556060820151600282015560808201516003820190610637908261106c565b5050336000908152600360209081526040808320805460018181018355918552838520018690556001600160a01b0388168452908320805491820181558352908220018390556002805490925061068d9061113f565b909155506040518281526001600160a01b03841690829033907fb6edfd3e1a01dc3ba1d70b628dd73a9b23154d7e0a4d1fe466e97c9764570cef9060200160405180910390a4505050565b600081815260016020526040808220815160a08101909252805483928392839283929190829060ff16600381111561071257610712610f07565b600381111561072357610723610f07565b815281546001600160a01b036101009091048116602083015260018301541660408201526002820154606082015260038201805460809092019161076690610fe2565b80601f016020809104026020016040519081016040528092919081815260200182805461079290610fe2565b80156107df5780601f106107b4576101008083540402835291602001916107df565b820191906000526020600020905b8154815290600101906020018083116107c257829003601f168201915b505050919092525050815160208301516040840151606090940151919a9099509297509550909350505050565b60008061081884610841565b905060006108268287610ca9565b6001600160a01b039081169085161415925050509392505050565b600081815260016020526040808220815160a08101909252805483929190829060ff16600381111561087557610875610f07565b600381111561088657610886610f07565b815281546001600160a01b03610100909104811660208301526001830154166040820152600282015460608201526003820180546080909201916108c990610fe2565b80601f01602080910402602001604051908101604052809291908181526020018280546108f590610fe2565b80156109425780601f1061091757610100808354040283529160200191610942565b820191906000526020600020905b81548152906001019060200180831161092557829003601f168201915b5050509190925250505060208181015160408084015160609485015182516bffffffffffffffffffffffff1994871b85168187015291861b84166034830152604882015260688101979097523090931b1660888601528151808603607c018152609c860183528051908201207f194175746f2052657175657374205061796d656e74733a0a333200000000000060bc87015260d6808701919091528251808703909101815260f6909501909152835193019290922092915050565b6000818152600160205260409020811580610a2e57506002815460ff166003811115610a2b57610a2b610f07565b14155b15610a4f576040516364b4f07960e11b81526004810183905260240161029d565b805461010090046001600160a01b03166000818152602081905260409020546002830154909181831015610aa1576040516303f74b1560e21b81526001600160a01b038216600482015260240161029d565b60018401546001600160a01b03163314610ace57604051631a1a8c6b60e31b815260040160405180910390fd5b610b65846003018054610ae090610fe2565b80601f0160208091040260200160405190810160405280929190818152602001828054610b0c90610fe2565b8015610b595780601f10610b2e57610100808354040283529160200191610b59565b820191906000526020600020905b815481529060010190602001808311610b3c57829003601f168201915b5050505050868361080c565b15610b8357604051638baa579f60e01b815260040160405180910390fd5b835460ff19166003178455610b98828461112c565b6001600160a01b038216600090815260208190526040808220929092559051339084908381818185875af1925050503d8060008114610bf3576040519150601f19603f3d011682016040523d82523d6000602084013e610bf8565b606091505b5050905080610c535760405162461bcd60e51b815260206004820152602160248201527f636c61696d5061796d656e743a204661696c656420746f2073656e64205453536044820152604360f81b606482015260840161029d565b336001600160a01b0316826001600160a01b0316877fd5d2af3aef795f5af40adb72b39dd23ef18b5c5b0d08fde329ef213ab6e2c0df86604051610c9991815260200190565b60405180910390a4505050505050565b600080600080610cb885610d29565b6040805160008152602081018083528b905260ff8516918101919091526060810183905260808101829052929550909350915060019060a0016020604051602081039080840390855afa158015610d13573d6000803e3d6000fd5b5050506020604051035193505050505b92915050565b60008060008351604114610d3c57600080fd5b5050506020810151604082015160609092015160001a92909190565b634e487b7160e01b600052604160045260246000fd5b600082601f830112610d7f57600080fd5b813567ffffffffffffffff80821115610d9a57610d9a610d58565b604051601f8301601f19908116603f01168101908282118183101715610dc257610dc2610d58565b81604052838152866020858801011115610ddb57600080fd5b836020870160208301376000602085830101528094505050505092915050565b60008060408385031215610e0e57600080fd5b82359150602083013567ffffffffffffffff811115610e2c57600080fd5b610e3885828601610d6e565b9150509250929050565b80356001600160a01b0381168114610e5957600080fd5b919050565b600060208284031215610e7057600080fd5b610e7982610e42565b9392505050565b6020808252825182820181905260009190848201906040850190845b81811015610eb857835183529284019291840191600101610e9c565b50909695505050505050565b600060208284031215610ed657600080fd5b5035919050565b60008060408385031215610ef057600080fd5b610ef983610e42565b946020939093013593505050565b634e487b7160e01b600052602160045260246000fd5b6080810160048610610f3f57634e487b7160e01b600052602160045260246000fd5b9481526001600160a01b0393841660208201529190921660408201526060015290565b600080600060608486031215610f7757600080fd5b833567ffffffffffffffff811115610f8e57600080fd5b610f9a86828701610d6e565b93505060208401359150610fb060408501610e42565b90509250925092565b634e487b7160e01b600052601160045260246000fd5b80820180821115610d2357610d23610fb9565b600181811c90821680610ff657607f821691505b60208210810361101657634e487b7160e01b600052602260045260246000fd5b50919050565b601f821115610514576000816000526020600020601f850160051c810160208610156110455750805b601f850160051c820191505b8181101561106457828155600101611051565b505050505050565b815167ffffffffffffffff81111561108657611086610d58565b61109a816110948454610fe2565b8461101c565b602080601f8311600181146110cf57600084156110b75750858301515b600019600386901b1c1916600185901b178555611064565b600085815260208120601f198616915b828110156110fe578886015182559484019460019091019084016110df565b508582101561111c5787850151600019600388901b60f8161c191681555b5050505050600190811b01905550565b81810381811115610d2357610d23610fb9565b60006001820161115157611151610fb9565b506001019056fea2646970667358221220728b95e74b44a632c2489c23351d80c81f1fd2a000038e599680de7cda4bc75764736f6c63430008170033",
    "linkReferences": {}
  },
  "methodIdentifiers": {
    "balances(address)": "27e235e3",
    "claimPayment(uint256)": "c63fdcc7",
    "constructMessageOf(uint256)": "c4ca172c",
    "getBalanceOf(address)": "9b96eece",
    "getPaymentRequest(uint256)": "b09fbe1a",
    "getRequestedPayIdsOf(address)": "2d769a1e",
    "requestPayId()": "9fdbed5c",
    "requestPayment(address,uint256)": "9f0c592e",
    "signPayReq(uint256,bytes)": "0769ec46",
    "verifySignature(bytes,uint256,address)": "c2f0df64",
    "withdraw(uint256)": "2e1a7d4d"
  },
  "id": 26
}