{
  "_format": "hh-sol-artifact-1",
  "contractName": "DidRegistry",
  "sourceName": "contracts/DidRegistry.sol",
  "abi": [
    {
      "inputs": [
        {
          "internalType": "address",
          "name": "semaphoreAddress",
          "type": "address"
        },
        {
          "internalType": "uint256",
          "name": "_groupId",
          "type": "uint256"
        }
      ],
      "stateMutability": "nonpayable",
      "type": "constructor"
    },
    {
      "inputs": [],
      "name": "DepBlockNumAlreadySet",
      "type": "error"
    },
    {
      "inputs": [],
      "name": "EitherZeroDidRootNullifierHash",
      "type": "error"
    },
    {
      "inputs": [],
      "name": "ZeroAddress",
      "type": "error"
    },
    {
      "inputs": [],
      "name": "ZeroGroupId",
      "type": "error"
    },
    {
      "inputs": [],
      "name": "ZeroIdentityCommitment",
      "type": "error"
    },
    {
      "inputs": [],
      "name": "ZeroProof",
      "type": "error"
    },
    {
      "anonymous": false,
      "inputs": [
        {
          "indexed": true,
          "internalType": "uint256",
          "name": "index",
          "type": "uint256"
        },
        {
          "indexed": true,
          "internalType": "uint256",
          "name": "identityCommitment",
          "type": "uint256"
        }
      ],
      "name": "DidAdded",
      "type": "event"
    },
    {
      "inputs": [
        {
          "internalType": "uint256",
          "name": "identityCommitment",
          "type": "uint256"
        }
      ],
      "name": "addToGroup",
      "outputs": [],
      "stateMutability": "nonpayable",
      "type": "function"
    },
    {
      "inputs": [],
      "name": "admin",
      "outputs": [
        {
          "internalType": "address",
          "name": "",
          "type": "address"
        }
      ],
      "stateMutability": "view",
      "type": "function"
    },
    {
      "inputs": [],
      "name": "deployedBlockNumber",
      "outputs": [
        {
          "internalType": "uint256",
          "name": "",
          "type": "uint256"
        }
      ],
      "stateMutability": "view",
      "type": "function"
    },
    {
      "inputs": [],
      "name": "getMembers",
      "outputs": [
        {
          "internalType": "uint256",
          "name": "",
          "type": "uint256"
        }
      ],
      "stateMutability": "view",
      "type": "function"
    },
    {
      "inputs": [],
      "name": "getMerkleTreeDepth",
      "outputs": [
        {
          "internalType": "uint256",
          "name": "",
          "type": "uint256"
        }
      ],
      "stateMutability": "view",
      "type": "function"
    },
    {
      "inputs": [],
      "name": "getMerkleTreeRoot",
      "outputs": [
        {
          "internalType": "uint256",
          "name": "",
          "type": "uint256"
        }
      ],
      "stateMutability": "view",
      "type": "function"
    },
    {
      "inputs": [],
      "name": "groupId",
      "outputs": [
        {
          "internalType": "uint256",
          "name": "",
          "type": "uint256"
        }
      ],
      "stateMutability": "view",
      "type": "function"
    },
    {
      "inputs": [],
      "name": "semaphore",
      "outputs": [
        {
          "internalType": "contract IDidRegistry",
          "name": "",
          "type": "address"
        }
      ],
      "stateMutability": "view",
      "type": "function"
    },
    {
      "inputs": [
        {
          "internalType": "uint256",
          "name": "_deployedBlockNumber",
          "type": "uint256"
        }
      ],
      "name": "setDeployedBlockNumber",
      "outputs": [],
      "stateMutability": "nonpayable",
      "type": "function"
    },
    {
      "inputs": [],
      "name": "userCount",
      "outputs": [
        {
          "internalType": "uint256",
          "name": "",
          "type": "uint256"
        }
      ],
      "stateMutability": "view",
      "type": "function"
    },
    {
      "inputs": [
        {
          "internalType": "uint256",
          "name": "did",
          "type": "uint256"
        },
        {
          "internalType": "uint256",
          "name": "merkleTreeRoot",
          "type": "uint256"
        },
        {
          "internalType": "uint256",
          "name": "nullifierHash",
          "type": "uint256"
        },
        {
          "internalType": "uint256[8]",
          "name": "proof",
          "type": "uint256[8]"
        }
      ],
      "name": "verifyMembership",
      "outputs": [],
      "stateMutability": "nonpayable",
      "type": "function"
    }
  ],
  "bytecode": "0x60806040523480156200001157600080fd5b5060405162000f4338038062000f4383398181016040528101906200003791906200022f565b600073ffffffffffffffffffffffffffffffffffffffff168273ffffffffffffffffffffffffffffffffffffffff1614156200009f576040517fd92e233d00000000000000000000000000000000000000000000000000000000815260040160405180910390fd5b6000811415620000db576040517f3200278200000000000000000000000000000000000000000000000000000000815260040160405180910390fd5b816000806101000a81548173ffffffffffffffffffffffffffffffffffffffff021916908373ffffffffffffffffffffffffffffffffffffffff1602179055508060018190555033600460006101000a81548173ffffffffffffffffffffffffffffffffffffffff021916908373ffffffffffffffffffffffffffffffffffffffff16021790555060008054906101000a900473ffffffffffffffffffffffffffffffffffffffff1673ffffffffffffffffffffffffffffffffffffffff16639c1121416001546014306040518463ffffffff1660e01b8152600401620001c593929190620002a3565b600060405180830381600087803b158015620001e057600080fd5b505af1158015620001f5573d6000803e3d6000fd5b50505050505062000366565b600081519050620002128162000332565b92915050565b60008151905062000229816200034c565b92915050565b600080604083850312156200024357600080fd5b6000620002538582860162000201565b9250506020620002668582860162000218565b9150509250929050565b6200027b81620002e0565b82525050565b6200028c816200031e565b82525050565b6200029d8162000314565b82525050565b6000606082019050620002ba600083018662000292565b620002c9602083018562000281565b620002d8604083018462000270565b949350505050565b6000620002ed82620002f4565b9050919050565b600073ffffffffffffffffffffffffffffffffffffffff82169050919050565b6000819050919050565b60006200032b8262000314565b9050919050565b6200033d81620002e0565b81146200034957600080fd5b50565b620003578162000314565b81146200036357600080fd5b50565b610bcd80620003766000396000f3fe608060405234801561001057600080fd5b50600436106100a95760003560e01c80639eab5253116100715780639eab525314610142578063a0f44c9214610160578063c3fc43f31461017e578063dd6c07001461019c578063e0b8217a146101b8578063f851a440146101d4576100a9565b806307973ccf146100ae5780634add651e146100cc5780637b5d2534146100ea57806380cfac27146101085780638bbade1914610126575b600080fd5b6100b66101f2565b6040516100c39190610993565b60405180910390f35b6100d46101f8565b6040516100e19190610993565b60405180910390f35b6100f26101fe565b6040516100ff9190610958565b60405180910390f35b610110610222565b60405161011d9190610993565b60405180910390f35b610140600480360381019061013b9190610826565b6102d5565b005b61014a6103ee565b6040516101579190610993565b60405180910390f35b6101686104a1565b6040516101759190610993565b60405180910390f35b6101866104a7565b6040516101939190610993565b60405180910390f35b6101b660048036038101906101b19190610826565b61055a565b005b6101d260048036038101906101cd9190610878565b610630565b005b6101dc6107b8565b6040516101e9919061093d565b60405180910390f35b60025481565b60035481565b60008054906101000a900473ffffffffffffffffffffffffffffffffffffffff1681565b60008060009054906101000a900473ffffffffffffffffffffffffffffffffffffffff1673ffffffffffffffffffffffffffffffffffffffff16636389e1076001546040518263ffffffff1660e01b81526004016102809190610993565b60206040518083038186803b15801561029857600080fd5b505afa1580156102ac573d6000803e3d6000fd5b505050506040513d601f19601f820116820180604052508101906102d0919061084f565b905090565b6000811415610310576040517fd26a949000000000000000000000000000000000000000000000000000000000815260040160405180910390fd5b6000600254905060026000815461032690610ab9565b9190508190555060008054906101000a900473ffffffffffffffffffffffffffffffffffffffff1673ffffffffffffffffffffffffffffffffffffffff16631783efc3600154846040518363ffffffff1660e01b815260040161038a9291906109ae565b600060405180830381600087803b1580156103a457600080fd5b505af11580156103b8573d6000803e3d6000fd5b5050505081817fd87326163857369b38989bd81e923390171e2ccda7b1afa7ed225a83f37baca960405160405180910390a35050565b60008060009054906101000a900473ffffffffffffffffffffffffffffffffffffffff1673ffffffffffffffffffffffffffffffffffffffff1663638480be6001546040518263ffffffff1660e01b815260040161044c9190610993565b60206040518083038186803b15801561046457600080fd5b505afa158015610478573d6000803e3d6000fd5b505050506040513d601f19601f8201168201806040525081019061049c919061084f565b905090565b60015481565b60008060009054906101000a900473ffffffffffffffffffffffffffffffffffffffff1673ffffffffffffffffffffffffffffffffffffffff1663dabc4d516001546040518263ffffffff1660e01b81526004016105059190610993565b60206040518083038186803b15801561051d57600080fd5b505afa158015610531573d6000803e3d6000fd5b505050506040513d601f19601f82011682018060405250810190610555919061084f565b905090565b600460009054906101000a900473ffffffffffffffffffffffffffffffffffffffff1673ffffffffffffffffffffffffffffffffffffffff163373ffffffffffffffffffffffffffffffffffffffff16146105ea576040517f08c379a00000000000000000000000000000000000000000000000000000000081526004016105e190610973565b60405180910390fd5b600060035414610626576040517f2321d21b00000000000000000000000000000000000000000000000000000000815260040160405180910390fd5b8060038190555050565b600084148061063f5750600083145b8061064a5750600082145b15610681576040517fd6acba7400000000000000000000000000000000000000000000000000000000815260040160405180910390fd5b60005b60088110156107185760008282600881106106c8577f4e487b7100000000000000000000000000000000000000000000000000000000600052603260045260246000fd5b60200201351415610705576040517fb91ccc3800000000000000000000000000000000000000000000000000000000815260040160405180910390fd5b808061071090610ab9565b915050610684565b5060008054906101000a900473ffffffffffffffffffffffffffffffffffffffff1673ffffffffffffffffffffffffffffffffffffffff16633bc778e3600154858786600154876040518763ffffffff1660e01b8152600401610780969594939291906109d7565b600060405180830381600087803b15801561079a57600080fd5b505af11580156107ae573d6000803e3d6000fd5b5050505050505050565b600460009054906101000a900473ffffffffffffffffffffffffffffffffffffffff1681565b6000819050826020600802820111156107f657600080fd5b92915050565b60008135905061080b81610b80565b92915050565b60008151905061082081610b80565b92915050565b60006020828403121561083857600080fd5b6000610846848285016107fc565b91505092915050565b60006020828403121561086157600080fd5b600061086f84828501610811565b91505092915050565b600080600080610160858703121561088f57600080fd5b600061089d878288016107fc565b94505060206108ae878288016107fc565b93505060406108bf878288016107fc565b92505060606108d0878288016107de565b91505092959194509250565b6108e581610a4a565b82525050565b6108f86101008383610aaa565b5050565b61090581610a86565b82525050565b6000610918602183610a39565b915061092382610b31565b604082019050919050565b61093781610a7c565b82525050565b600060208201905061095260008301846108dc565b92915050565b600060208201905061096d60008301846108fc565b92915050565b6000602082019050818103600083015261098c8161090b565b9050919050565b60006020820190506109a8600083018461092e565b92915050565b60006040820190506109c3600083018561092e565b6109d0602083018461092e565b9392505050565b60006101a0820190506109ed600083018961092e565b6109fa602083018861092e565b610a07604083018761092e565b610a14606083018661092e565b610a21608083018561092e565b610a2e60a08301846108eb565b979650505050505050565b600082825260208201905092915050565b6000610a5582610a5c565b9050919050565b600073ffffffffffffffffffffffffffffffffffffffff82169050919050565b6000819050919050565b6000610a9182610a98565b9050919050565b6000610aa382610a5c565b9050919050565b82818337600083830152505050565b6000610ac482610a7c565b91507fffffffffffffffffffffffffffffffffffffffffffffffffffffffffffffffff821415610af757610af6610b02565b5b600182019050919050565b7f4e487b7100000000000000000000000000000000000000000000000000000000600052601160045260246000fd5b7f4f6e6c792061646d696e2063616e2063616c6c20746869732066756e6374696f60008201527f6e00000000000000000000000000000000000000000000000000000000000000602082015250565b610b8981610a7c565b8114610b9457600080fd5b5056fea2646970667358221220a2ed88157b4688b23fc6a587ac4673761dd35ae3657360aa88167a0be5cfd36f64736f6c63430008040033",
  "linkReferences": {},
  "deployedLinkReferences": {}
}